:100000000C9465010C9482010C9482010C94820181
:100010000C9482010C9482010C94A1050C94820131
:100020000C9482010C9482010C9482010C94820144
:100030000C9482010C9482010C9482010C94820134
:100040000C9482010C9482010C9482010C94820124
:100050000C94820154657374322074687265616413
:1000600020776F6B6520776974686F75742064659D
:100070006C6574696F6E20282564290A00457272C8
:100080006F7220706F7374696E672073656D3220B4
:100090006F6E2077616B6575700A005465737431FB
:1000A0002074687265616420776F6B65207769746E
:1000B000686F75742064656C6574696F6E2028259F
:1000C00064290A004572726F7220706F7374696ED2
:1000D000672073656D32206F6E2077616B65757078
:1000E00020282564290A004572726F722064656CAD
:1000F0006574696E672073656D6170686F72650AFB
:10010000004572726F72206372656174696E672058
:1001100073656D6170686F72650A00426164207377
:10012000656D6170686F7265206372656174696F77
:100130006E20636865636B730A00426164207365B7
:100140006D6170686F72652064656C6574696F6E4F
:1001500020636865636B730A004572726F72206377
:1001600072656174696E6720746573742073656D60
:100170006170686F726520310A004572726F72207B
:100180006372656174696E6720746573742073654A
:100190006D6170686F726520320A004572726F720D
:1001A000206372656174696E67207465737420746E
:1001B000687265616420310A004661696C6564207B
:1001C00074696D65722064656C61790A00466169C5
:1001D0006C65642073656D312064656C6574650AB7
:1001E000004E6F74696679206661696C2028256409
:1001F000290A004661696C65642073656D3220646C
:10020000656C6574650A004572726F722063726571
:100210006174696E6720746573742073656D6170B5
:10022000686F726520310A004572726F72206372C6
:10023000656174696E6720746573742073656D61A0
:1002400070686F726520320A004572726F722063A7
:1002500072656174696E6720746573742074687266
:1002600065616420320A004661696C6564207469C6
:100270006D65722064656C61790A004661696C6520
:10028000642073656D312064656C6574650A004E89
:100290006F74696679206661696C20282564290A73
:1002A000004661696C65642073656D322064656C1D
:1002B0006574650A00476F0A00506173730A00464F
:1002C00061696C282564290A000011241FBECFE54E
:1002D000D4E0DEBFCDBF10E0A0E6B0E0E0E3F5E3A0
:1002E00002C005900D92AE36B107D9F713E0AEE625
:1002F000B0E001C01D92AC31B107E1F70E94690680
:100300000C94961A0C94D0058F92AF92BF92CF9214
:10031000DF92EF92FF920F931F93DF93CF93CDB7AE
:10032000DEB727970FB6F894DEBF0FBECDBF1A8297
:1003300019821B821C821D821E823EC08EE690E0C6
:1003400060E00E948A0B8823C9F48EE690E00E9448
:10035000AD0B882331F127EE30E000D08DB79EB78A
:100360000196FC01318320830E94C4170F900F90E7
:1003700089819A8101969A8389832BC021E031E09B
:1003800000D08DB79EB70196FC01318320830E9477
:10039000C4170F900F9089819A8101969A8389835F
:1003A00018C08B819C81AD81BE810196A11DB11DBC
:1003B0008B839C83AD83BE838B819C81AD81BE8109
:1003C000883EF3E09F07F0E0AF07F0E0BF0708F4D6
:1003D000B5CF80E090E060E00E948A0B882391F422
:1003E0002BE131E000D08DB79EB70196FC0131833F
:1003F00020830E94C4170F900F9089819A810196E3
:100400009A83898380E090E00E94AD0B882391F469
:100410002AE331E000D08DB79EB70196FC0131830D
:1004200020830E94C4170F900F9089819A810196B2
:100430009A8389838EE690E060E00E948A0B88238D
:1004400099F029E531E000D08DB79EB70196FC0107
:10045000318320830E94C4170F900F9089819A8165
:1004600001969A838983B9C081E790E060E00E9499
:100470008A0B882399F02AE731E000D08DB79EB728
:100480000196FC01318320830E94C4170F900F90C6
:1004900089819A8101969A8389839FC084E790E03D
:1004A0002AED33E0E6E9F0E060E1A90100E010E0C8
:1004B00020E030E07F01AA24BB2465016894A7F8FE
:1004C000882483940E943908882399F02BE931E02D
:1004D00000D08DB79EB70196FC01318320830E9426
:1004E000C4170F900F9089819A8101969A8389830E
:1004F00074C064E670E080E090E00E947E11882382
:1005000099F029EB31E000D08DB79EB70196FC0140
:10051000318320830E94C4170F900F9089819A81A4
:1005200001969A83898359C08EE690E00E94AD0BB4
:10053000882399F02DEC31E000D08DB79EB701965D
:10054000FC01318320830E94C4170F900F90898192
:100550009A8101969A83898340C081E790E044EFB5
:1005600051E060E070E00E94270C8F838F81882328
:10057000E1F041EE51E08F81282F30E000D000D033
:100580008DB79EB70196FC0151834083FC013383F4
:1005900022830E94C4170F900F900F900F908981B3
:1005A0009A8101969A83898318C081E790E00E941E
:1005B000AD0B882391F023EF31E000D08DB79EB7CB
:1005C0000196FC01318320830E94C4170F900F9085
:1005D00089819A8101969A8389838EE690E060E012
:1005E0000E948A0B882399F027E032E000D08DB773
:1005F0009EB70196FC01318320830E94C4170F909F
:100600000F9089819A8101969A838983B9C081E785
:1006100090E060E00E948A0B882399F028E232E0A3
:1006200000D08DB79EB70196FC01318320830E94D4
:10063000C4170F900F9089819A8101969A838983BC
:100640009FC0E6E1F1E085E890E02DE234E060E172
:10065000A90100E010E020E030E07F01AA24BB24E3
:1006600065016894A7F8882483940E943908882338
:1006700099F029E432E000D08DB79EB70196FC01D5
:10068000318320830E94C4170F900F9089819A8133
:1006900001969A83898374C064E670E080E090E0FC
:1006A0000E947E11882399F027E632E000D08DB7B2
:1006B0009EB70196FC01318320830E94C4170F90DE
:1006C0000F9089819A8101969A83898359C08EE619
:1006D00090E00E94AD0B882399F02BE732E000D028
:1006E0008DB79EB70196FC01318320830E94C41709
:1006F0000F900F9089819A8101969A83898340C0D7
:1007000081E790E044EF51E060E070E00E94270C48
:100710008F838F818823E1F04FE852E08F81282F6B
:1007200030E000D000D08DB79EB70196FC01518318
:100730004083FC01338322830E94C4170F900F90E3
:100740000F900F9089819A8101969A83898318C0AE
:1007500081E790E00E94AD0B882391F021EA32E01E
:1007600000D08DB79EB70196FC01318320830E9493
:10077000C4170F900F9089819A8101969A8389837B
:1007800089819A81AA2797FDA095BA2FBC01CD0136
:1007900027960FB6F894DEBF0FBECDBFCF91DF9185
:1007A0001F910F91FF90EF90DF90CF90BF90AF908F
:1007B0008F900895DF93CF9300D000D00F92CDB7E4
:1007C000DEB76A837B838C839D838EE690E040E076
:1007D00050E060E070E00E94270C898389818A3CA8
:1007E000B9F04BE950E08981282F30E000D000D0EB
:1007F0008DB79EB70196FC0151834083FC01338382
:1008000022830E94C4170F900F900F900F901EC06C
:1008100081E790E00E94F30C898389818823B1F0FD
:1008200044EC50E08981282F30E000D000D08DB713
:100830009EB70196FC0151834083FC0133832283E0
:100840000E94C4170F900F900F900F9064E670E015
:1008500080E090E00E947E11F9CFDF93CF9300D02B
:1008600000D00F92CDB7DEB76A837B838C839D83E4
:100870008EE690E044EF51E060E070E00E94270CCB
:10088000898389818A3CB9F044E550E08981282F29
:1008900030E000D000D08DB79EB70196FC015183A7
:1008A0004083FC01338322830E94C4170F900F9072
:1008B0000F900F9015C081E790E00E94F30C8983A0
:1008C0008981882369F02DE730E000D08DB79EB78D
:1008D0000196FC01318320830E94C4170F900F9072
:1008E00064E670E080E090E00E947E11F9CFDF9333
:1008F000CF9300D0CDB7DEB70E9413099A838983C6
:10090000789489819A810097B9F089819A81FC0154
:1009100083819481009781F089819A81FC012381F0
:10092000348189819A81FC0185819681A781B08576
:10093000BC01CD01F90109950F900F90CF91DF9186
:1009400008950F931F93DF93CF93CDB7DEB72C9706
:100950000FB6F894DEBF0FBECDBF9C838B837E8322
:100960006D8358874F8309871A872B873C878D8132
:100970009E819A83898387E794E0282F89819A81D1
:10098000FC01208389819A8101979A83898387E773
:1009900094E0892F9927282F89819A81FC0120834F
:1009A00089819A8101979A83898389819A81FC013F
:1009B000108289819A8101979A83898389819A819A
:1009C000FC01108289819A8101979A8389838981A8
:1009D0009A81FC01108289819A8101979A83898387
:1009E00089819A81FC01108289819A8101979A8379
:1009F000898389819A81FC01108289819A8101977A
:100A00009A83898389819A81FC01108289819A81E4
:100A100001979A83898389819A81FC011082898157
:100A20009A8101979A83898389819A81FC01108236
:100A300089819A8101979A83898389819A81FC01AE
:100A4000108289819A8101979A83898389819A8109
:100A5000FC01108289819A8101979A838983898117
:100A60009A81FC01108289819A8101979A838983F6
:100A700089819A81FC01108289819A8101979A83E8
:100A8000898389819A81FC01108289819A810197E9
:100A90009A83898389819A81FC01108289819A8154
:100AA00001979A83898389819A81FC0110828981C7
:100AB0009A8101979A83898389819A81FC011082A6
:100AC00089819A8101979A83898389819A81FC011E
:100AD000108289819A8101979A83898389819A8179
:100AE000FC01108289819A8101979A8389838B8185
:100AF0009C8129813A81FC01318320832C960FB699
:100B0000F894DEBF0FBECDBFCF91DF911F910F9143
:100B10000895DF93CF93CDB7DEB78AE490E027E264
:100B200030E0FC013183208389E590E020E1FC0185
:100B300020838EE490E02CE0FC012083CF91DF91B4
:100B400008951F920F920FB60F9211242F933F9387
:100B50004F935F936F937F938F939F93AF93BF93C5
:100B6000EF93FF93DF93CF93CDB7DEB70E94ED08ED
:100B70000E945E1181E00E94FD08CF91DF91FF91FC
:100B8000EF91BF91AF919F918F917F916F915F9105
:100B90004F913F912F910F900FBE0F901F9018957E
:100BA0001F920F920FB60F921124DF93CF93CDB700
:100BB000DEB7CF91DF910F900FBE0F901F90189569
:100BC0000F931F93DF93CF9300D000D000D0CDB709
:100BD000DEB76B837C838D839E838BE290E022E083
:100BE000FC01208309E210E08B819C81AD81BE81F4
:100BF000880F991FAA1FBB1F880F991FAA1FBB1F11
:100C0000880F991FAA1FBB1F9C01AD0180E492E4CD
:100C1000AFE0B0E0BC01CD010E949917DA01C90133
:100C20008150F80180838AE290E028E1FC01208372
:100C300086E991E00E94DE0D882329F08FEF9FEF77
:100C40009A83898302C01A82198289819A812696A1
:100C50000FB6F894DEBF0FBECDBFCF91DF911F91CD
:100C60000F910895DF93CF9300D00F92CDB7DEB7E9
:100C700089837B836A8386E991E040E050E060E00D
:100C800070E00E947D0E8823E1F489818A3031F47E
:100C90002A813B818DE0B9010E9432068BE290E00F
:100CA000FC018081882F90E0807290700097B1F3F2
:100CB0008CE290E02981FC01208386E991E00E948A
:100CC0007D0F80E090E00F900F900F90CF91DF911B
:100CD00008958F92AF92BF92CF92DF92EF92FF92E0
:100CE0000F931F93DF93CF930F92CDB7DEB78DE5B0
:100CF00090E027EB32E0FC013183208388E792E02B
:100D000040E850E060E070E020E00E94270989831D
:100D10008981882319F50E9489058BE991E02FEAE2
:100D200036E0ECEAF1E060E1A90100E010E020E04B
:100D300030E07F010F2EFCECAF2EF0E0BF2EF0E094
:100D4000CF2EF0E0DF2EF02D882483940E94390806
:100D500089838981882311F40E947309FFCFDF936F
:100D6000CF93CDB7DEB72A970FB6F894DEBF0FBE8C
:100D7000CDBF6F83788789879A8787E390E02FEFCD
:100D8000FC01208388E390E02FEFFC01208360E8E2
:100D900075E280E090E00E94E00580E690E09093AC
:100DA00019038093180325EB32E000D08DB79EB76E
:100DB0000196FC01318320830E94C4170F900F908D
:100DC0000E948401DC01CB0189839A83AB83BC83BD
:100DD00089819A81AB81BC810097A105B10571F42D
:100DE00029EB32E000D08DB79EB70196FC0131832C
:100DF00020830E94C4170F900F901FC08FEB92E0CA
:100E000000D000D000D02DB73EB72F5F3F4FF90183
:100E10009183808389819A81AB81BC81F90182832E
:100E20009383A483B5830E94C4178DB79EB706969B
:100E30000FB6F8949EBF0FBE8DBF89819A81AB819A
:100E4000BC810097A105B10519F484E690E002C0C9
:100E50008CE090E09E838D8388E390E028E330E08F
:100E6000F901308120E82327FC0120838D819E81B8
:100E7000AA2797FDA095BA2FBC01CD010E947E1133
:100E8000EBCF2F923F924F925F926F927F928F9211
:100E90009F92AF92BF92CF92DF92EF92FF920F9309
:100EA0001F93CF93DF930DB71EB7C82FD92F088399
:100EB0001983C62FD72F088119810DBF1EBFDF915F
:100EC000CF911F910F91FF90EF90DF90CF90BF9047
:100ED000AF909F908F907F906F905F904F903F90DA
:100EE0002F900895C82FD92F088119810DBF1EBFDB
:100EF000DF91CF911F910F91FF90EF90DF90CF90F6
:100F0000BF90AF909F908F907F906F905F904F9029
:100F10003F902F901895DF93CF9300D000D000D052
:100F2000CDB7DEB78E831C821B828091FA028823A4
:100F300009F46CC08FE590E0FC0180818D83F8940A
:100F40008091FB029091FC02FC018585813081F447
:100F500088EF92E00E943C0A9C838B838091FB0285
:100F60009091FC022B813C81B9010E94100848C07D
:100F70008E81813059F48091FB029091FC02FC013A
:100F80008281882F90E09A83898318C08091FB0228
:100F90009091FC02FC018281882361F08091FB0228
:100FA0009091FC02FC018281882F90E001979A8346
:100FB000898304C08FEF9FEF9A83898389819A8107
:100FC0009923F4F0298188EF92E0622F0E94300B80
:100FD0009C838B838B819C81009791F02091FB02F5
:100FE0003091FC0288EF92E0B9010E94A009809143
:100FF000FB029091FC022B813C81B9010E941008F8
:101000008FE590E02D81FC01208301C00000269631
:101010000FB6F894DEBF0FBECDBFCF91DF9108951C
:10102000DF93CF9300D000D0CDB7DEB79A8389830A
:101030007C836B8329813A818B819C8128173907B6
:1010400069F08B819C819093FC028093FB028981E3
:101050009A812B813C81B9010E94410789819A8143
:10106000FC0115860F900F900F900F90CF91DF919C
:1010700008958F92AF92BF92CF92DF92EF92FF923C
:101080000F931F93DF93CF93CDB7DEB764970FB65F
:10109000F894DEBF0FBECDBF9E838D836F835987CB
:1010A00048870A871B872C873D87FF86EE86A88A9C
:1010B000B98ACA8ADB8A8C8A8D819E81009781F0E9
:1010C00088859985009761F08E859F85009741F00E
:1010D00088899989AA89BB890097A105B10519F466
:1010E00089EC898367C08D819E81FC0115868D8185
:1010F0009E812F81FC0122838D819E81FC011286BD
:1011000011868D819E81FC01148613868D819E81BE
:10111000FC01108A17868D819E8128853985FC0106
:10112000348323832D813E818A859B85AC85BD8553
:10113000F90185839683A783B0872E853F858889AB
:1011400099890197820F931F9B838A838D819E814A
:101150006A817B81488559850A851B852C853D855B
:101160000E94A1048FE590E0FC0180818C83F894BB
:1011700088EF92E02D813E81B9010E94A009882369
:1011800041F08FE590E02C81FC0120838CEC898379
:1011900011C08FE590E02C81FC0120838091FA0240
:1011A000813039F40E941309009719F080E00E9401
:1011B0008B071982898164960FB6F894DEBF0FBE43
:1011C000CDBFCF91DF911F910F91FF90EF90DF90F6
:1011D000CF90BF90AF908F900895DF93CF93CDB70E
:1011E000DEB780910E0390910F03019690930F0349
:1011F00080930E03CF91DF910895DF93CF930F92E9
:10120000CDB7DEB7898380910E0390910F030197CC
:1012100090930F0380930E0389810E948B070F9098
:10122000CF91DF910895DF93CF93CDB7DEB7809153
:101230000E0390910F03009729F48091FB02909187
:10124000FC0202C080E090E0CF91DF9108958F9280
:10125000AF92BF92CF92DF92EF92FF920F931F93C4
:10126000DF93CF93CDB7DEB728970FB6F894DEBFE4
:101270000FBECDBF9B838A834C835D836E837F8348
:1012800028871092FC021092FB021092F902109231
:10129000F8021092FA028DEF92E025E939E0EA8136
:1012A000FB81AC80BD80CE80DF806FEFA90100E0C4
:1012B00010E020E030E07F0188840E9439088983B3
:1012C000898128960FB6F894DEBF0FBECDBFCF91AF
:1012D000DF911F910F91FF90EF90DF90CF90BF9023
:1012E000AF908F900895DF93CF9300D0CDB7DEB746
:1012F00081E08093FA0288EF92E06FEF0E94300B5A
:101300009A83898389819A81009751F089819A8192
:101310009093FC028093FB0289819A810E9472075C
:101320000F900F90CF91DF910895DF93CF9300D06E
:1013300000D0CDB7DEB769837A838B839C83FFCFE0
:10134000DF93CF93CDB7DEB729970FB6F894DEBF02
:101350000FBECDBF9F838E83798768878E819F81E3
:10136000009721F088859985009719F489EC898385
:1013700079C08E819F81FC01808191819D838C83C6
:101380008C819D819B838A838C819D81009759F0FC
:101390008C819D81FC01228188859985FC01828157
:1013A000821708F04AC08E819F81FC012081318123
:1013B0008C819D8128173907F9F48E819F812885BA
:1013C0003985FC013183208388859985FC0112864B
:1013D0001186888599852C813D81FC01348723877E
:1013E0008C819D810097D1F18C819D8128853985E3
:1013F000FC013287218735C0888599852A813B8108
:10140000FC0132872187888599852C813D81FC01EB
:10141000348723878A819B8128853985FC0134871D
:1014200023878C819D810097D9F08C819D812885AF
:101430003985FC013287218714C08C819D819B8373
:101440008A838C819D81FC01838594859D838C8317
:101450008A819B81009709F097CF03C0000001C0EB
:1014600000001982898129960FB6F894DEBF0FBE5D
:10147000CDBFCF91DF910895DF93CF9300D000D0FF
:10148000CDB7DEB79C838B838B819C81009719F449
:101490001A82198239C08B819C81FC0180819181E3
:1014A000009719F41A8219822FC08B819C81FC014C
:1014B000808191819A83898389819A81FC01238526
:1014C00034858B819C81FC01318320838B819C81BD
:1014D000FC0180819181009741F08B819C81FC010E
:1014E00080819181FC011286118689819A81FC019B
:1014F0001286118689819A81FC0121853285898134
:101500009A81FC013487238789819A810F900F90FB
:101510000F900F90CF91DF910895DF93CF93CDB7C8
:10152000DEB72A970FB6F894DEBF0FBECDBF9887FF
:101530008F837A8769878F819885009719F41A823B
:10154000198283C08F819885FC01808191810097E9
:1015500019F41A82198279C01A8219828F819885AA
:10156000FC01808191819E838D838D819E819C83EE
:101570008B8366C02D813E8189859A85281739071E
:1015800009F053C08F819885FC01208131818D81C4
:101590009E8128173907D1F48D819E81FC01238516
:1015A00034858F819885FC01318320838F819885D4
:1015B000FC0180819181009721F18F819885FC0148
:1015C00080819181FC01128611861BC08D819E81D4
:1015D000FC01238534858B819C81FC013487238722
:1015E0008D819E81FC0183859485009751F08D81CA
:1015F0009E81FC01838594852B813C81FC0132878F
:1016000021878D819E819A83898389819A81FC01BA
:101610001486138689819A81FC012385348589810A
:101620009A81FC013287218710C08D819E819C8325
:101630008B838D819E81FC01838594859E838D8320
:101640008D819E81009709F095CF89819A812A9694
:101650000FB6F894DEBF0FBECDBFCF91DF910895D6
:10166000DF93CF9300D000D00F92CDB7DEB79C832D
:101670008B836D838B819C81009719F41A82198268
:101680003FC08B819C81FC0180819181009719F47E
:101690001A82198235C08B819C81FC0180819181E5
:1016A000FC0192818D81891748F18B819C81FC011D
:1016B000808191819A8389838B819C81FC018081C7
:1016C0009181FC01238534858B819C81FC013183D0
:1016D00020838B819C81FC0180819181009781F026
:1016E0008B819C81FC0180819181FC011286118695
:1016F00089819A81FC011486138602C01A8219829C
:1017000089819A810F900F900F900F900F90CF9139
:10171000DF910895DF93CF9300D000D0CDB7DEB72F
:101720009B838A836C838A819B81009719F489EC5F
:1017300089830BC08A819B812C81FC0122838A8151
:101740009B81FC0111821082198289810F900F9078
:101750000F900F90CF91DF910895DF93CF93CDB786
:10176000DEB727970FB6F894DEBF0FBECDBF9F83BD
:101770008E831A828E819F81009719F489EC898368
:101780005CC019828FE590E0FC0180818B83F89426
:101790008E819F810E943C0A9D838C838C819D81D8
:1017A0000097D9F18C819D812AECFC01268788EF76
:1017B00092E02C813D81B9010E94A009882341F06B
:1017C0008FE590E02B81FC0120838CEC89832BC07A
:1017D0008C819D81FC01878590890097B1F08C8177
:1017E0009D81FC01878590890E94C610882341F065
:1017F0008FE590E02B81FC0120838DEC898313C061
:101800008C819D81FC01108A17868FE590E02B81E9
:10181000FC01208381E08A83B5CF8FE590E02B81A6
:10182000FC01208300008A81813039F40E94130971
:10183000009719F080E00E948B07898127960FB6E8
:10184000F894DEBF0FBECDBFCF91DF910895DF9337
:10185000CF93CDB7DEB768970FB6F894DEBF0FBE53
:10186000CDBF9C8B8B8B4D8B5E8B6F8B788F8B89D9
:101870009C89009719F489EC8983ABC08FE590E0CF
:10188000FC0180818A83F8948B899C89FC01828188
:10189000882309F08EC08D899E89AF89B88DBB23BE
:1018A0000CF47FC00E9413099C838B838B819C81E5
:1018B000009709F46EC08B899C892B813C81B9010A
:1018C0000E94A009882341F08FE590E02A81FC0165
:1018D00020838CEC89837DC08B819C8121E0FC017D
:1018E000258719828D899E89AF89B88D0097A105BA
:1018F000B105C9F18B819C819E838D838B899C89E5
:1019000098878F8383E99DE09A878987CE01059622
:101910009C878B878D899E89AF89B88D8D879E879F
:10192000AF87B88B8B819C819E01275F3F4FFC0165
:10193000308B2787CE0109960E9470108823C1F052
:101940008DEC89838B899C892B813C81B9010E9414
:101950008D0A8B819C81FC0115868B819C81FC0109
:10196000108A178605C08B819C81FC01108A17861E
:101970008FE590E02A81FC0120838981882349F545
:1019800080E00E948B078B819C81FC018685898386
:1019900020C08FE590E02A81FC01208388EC8983B8
:1019A00018C08FE590E02A81FC01208383E08983C1
:1019B00010C08B899C89FC018281282F21508B8942
:1019C0009C89FC0122838FE590E02A81FC01208321
:1019D0001982898168960FB6F894DEBF0FBECDBF1D
:1019E000CF91DF910895DF93CF9300D000D000D046
:1019F000CDB7DEB79E838D838D819E81009719F4CC
:101A000089EC898368C08FE590E0FC0180818A833E
:101A1000F8948D819E81FC0180819181009709F469
:101A200041C08D819E810E943C0A9C838B8388EFFC
:101A300092E02B813C81B9010E94A009882341F0EA
:101A40008FE590E02A81FC0120838CEC898343C0E0
:101A50008B819C81FC0116868B819C81FC01878592
:101A60009089009761F08B819C81FC01878590892A
:101A70000E94C610882319F08DEC898306C08B81E3
:101A80009C81FC01108A178619828FE590E02A81DB
:101A9000FC0120830E9413090097E9F080E00E9476
:101AA0008B0719C08D819E81FC0182818F3F19F4C3
:101AB0008BEC89830BC08D819E81FC018281282F54
:101AC0002F5F8D819E81FC01228319828FE590E03A
:101AD0002A81FC012083898126960FB6F894DEBF07
:101AE0000FBECDBFCF91DF910895DF93CF9300D08C
:101AF00000D0CDB7DEB79B838A836C838A819B81BC
:101B0000009719F489EC898306C08A819B812C8116
:101B1000FC012283198289810F900F900F900F9002
:101B2000CF91DF910895DF93CF9300D000D00F9233
:101B3000CDB7DEB79D838C838C819D819A83898309
:101B400089819A81009791F18FE590E0FC01808175
:101B50008B83F89489819A81FC018081918122E0B4
:101B6000FC01268789819A81FC0180819181FC0199
:101B7000108A178689819A81FC018281938129814B
:101B80003A81F90120813181B9010E948D0A898150
:101B90009A81FC012081318188EF92E0B9010E9495
:101BA000A0098FE590E02B81FC0120830F900F901E
:101BB0000F900F900F90CF91DF910895DF93CF9307
:101BC00000D00F92CDB7DEB79B838A838A819B8139
:101BD000009719F489EC89830FC08A819B81FC01ED
:101BE000138212828A819B81FC0114828A819B81EB
:101BF000FC0111821082198289810F900F900F9041
:101C0000CF91DF910895DF93CF93CDB7DEB72797BC
:101C10000FB6F894DEBF0FBECDBF9F838E831A82AE
:101C20008E819F81009719F489EC89835CC01982A9
:101C30008FE590E0FC0180818B83F8948E819F81F9
:101C40000E943C0A9D838C838C819D810097D9F1F1
:101C50008C819D812AECFC01268788EF92E02C8103
:101C60003D81B9010E94A009882341F08FE590E0F1
:101C70002B81FC0120838CEC89832BC08C819D817E
:101C8000FC01878590890097B1F08C819D81FC01D2
:101C9000878590890E94C610882341F08FE590E0E7
:101CA0002B81FC0120838DEC898313C08C819D8165
:101CB000FC01108A17868FE590E02B81FC012083C0
:101CC00081E08A83B5CF8FE590E02B81FC012083F2
:101CD00000008A81813039F40E941309009719F0BD
:101CE00080E00E948B07898127960FB6F894DEBFAB
:101CF0000FBECDBFCF91DF910895DF93CF93CDB7C6
:101D0000DEB768970FB6F894DEBF0FBECDBF9C8BD1
:101D10008B8B4D8B5E8B6F8B788F8B899C8900971B
:101D200019F489EC8983DFC00E9413099B838A839D
:101D30008FE590E0FC0180818C83F8948A819B81FF
:101D4000009741F48FE590E02C81FC01208388EC22
:101D50008983C9C08B899C89FC018281938100970A
:101D600009F496C08B899C89FC01228133818A8188
:101D70009B812817390709F48BC08D899E89AF890B
:101D8000B88DBB230CF47CC08B899C892A813B8154
:101D9000B9010E94A009882341F08FE590E02C81D1
:101DA000FC0120838CEC89839EC08A819B8121E089
:101DB000FC01258719828D899E89AF89B88D00978E
:101DC000A105B105C9F18A819B819E838D838B8991
:101DD0009C8998878F8385E290E19A878987CE01D5
:101DE00005969C878B878D899E89AF89B88D8D8755
:101DF0009E87AF87B88B8A819B819E01275F3F4F6B
:101E0000FC01308B2787CE0109960E947010882331
:101E1000C1F08DEC89838B899C892A813B81B90132
:101E20000E948D0A8A819B81FC0115868A819B8193
:101E3000FC01108A178605C08A819B81FC01108AEB
:101E400017868FE590E02C81FC012083898188230F
:101E500009F046C080E00E948B078A819B81FC01CB
:101E60008685898389818823E9F58B899C89FC0192
:101E70008481282F2F5F8B899C89FC01248333C0A8
:101E80008FE590E02C81FC01208383E089832BC0C7
:101E90008B899C89FC0184818F3F19F48BEC8983A9
:101EA00019C08B899C89FC018481282F2F5F8B8925
:101EB0009C89FC0124838B899C89FC01828193810C
:101EC000009739F48B899C892A813B81FC013383FB
:101ED000228319828FE590E02C81FC01208303C0CE
:101EE000000001C00000898168960FB6F894DEBF3B
:101EF0000FBECDBFCF91DF910895DF93CF93CDB7C4
:101F0000DEB728970FB6F894DEBF0FBECDBF988717
:101F10008F838F819885009719F489EC89838BC012
:101F20000E9413099B838A838FE590E0FC018081E6
:101F30008C83F8948F819885FC01228133818A817A
:101F40009B812817390741F08FE590E02C81FC0137
:101F500020838FEC89836FC08F819885FC018481F9
:101F6000282F21508F819885FC0124838F819885AB
:101F7000FC018481882309F058C08F819885FC0179
:101F8000138212828F819885FC0180819181009754
:101F900009F444C08F8198850E943C0A9E838D83FA
:101FA00088EF92E02D813E81B9010E94A00988232B
:101FB00041F08FE590E02C81FC0120838CEC89833B
:101FC0003AC08D819E81FC0116868F8198852D8176
:101FD0003E81FC01338322838D819E81FC018785B4
:101FE0009089009761F08D819E81FC0187859089A1
:101FF0000E94C610882319F08DEC898306C08D815C
:102000009E81FC01108A178619828FE590E02C8151
:10201000FC01208380E00E948B070DC08FE590E0DB
:102020002C81FC012083198206C08FE590E02C8171
:10203000FC0120831982898128960FB6F894DEBFAF
:102040000FBECDBFCF91DF910895DF93CF9300D026
:1020500000D00F92CDB7DEB79D838C838C819D819C
:102060009A83898389819A81009791F18FE590E025
:10207000FC0180818B83F89489819A81FC018081A5
:10208000918122E0FC01268789819A81FC0180816F
:102090009181FC01108A178689819A81FC018281D5
:1020A000938129813A81F90120813181B9010E940E
:1020B0008D0A89819A81FC012081318188EF92E02B
:1020C000B9010E94A0098FE590E02B81FC012083DB
:1020D0000F900F900F900F900F90CF91DF91089578
:1020E000DF93CF9300D000D0CDB7DEB79C838B8336
:1020F0008B819C81009791F08B819C81FC01808178
:102100009181009759F08B819C81FC01848195819C
:10211000A681B7810097A105B10519F489EC8983DF
:102120002DC08FE590E0FC0180818A83F894809136
:10213000100390911103009761F48B819C81FC0145
:10214000118610868B819C819093110380931003DC
:102150000FC020911003309111038B819C81FC01F1
:10216000318720878B819C8190931103809310038A
:102170008FE590E02A81FC012083198289810F90EC
:102180000F900F900F90CF91DF910895DF93CF9331
:10219000CDB7DEB728970FB6F894DEBF0FBECDBF20
:1021A00098878F838EEC89838F819885009719F4A7
:1021B00089EC89834BC08FE590E0FC0180818E83A0
:1021C000F89480911003909111039D838C838C81EE
:1021D0009D819B838A8331C02C813D818F8198852D
:1021E00028173907F9F480911003909111032C817D
:1021F0003D812817390751F48C819D81FC01808530
:10220000918590931103809310030AC08C819D8166
:10221000FC01208531858A819B81FC0131872087E3
:1022200019820FC08C819D819B838A838C819D81C3
:10223000FC01808591859D838C838C819D81009795
:1022400059F68FE590E02E81FC0120838981289644
:102250000FB6F894DEBF0FBECDBFCF91DF910895CA
:10226000DF93CF93CDB7DEB7809112039091130324
:10227000A0911403B0911503BC01CD01CF91DF9162
:102280000895DF93CF9300D000D0CDB7DEB7698338
:102290007A838B839C8389819A81AB81BC81809373
:1022A000120390931303A0931403B09315030F909C
:1022B0000F900F900F90CF91DF910895DF93CF9300
:1022C000CDB7DEB78091FA028823A9F0809112037E
:1022D00090911303A0911403B09115030196A11DD1
:1022E000B11D8093120390931303A0931403B09332
:1022F00015030E94EA11CF91DF910895DF93CF93E8
:10230000CDB7DEB764970FB6F894DEBF0FBECDBF72
:10231000698B7A8B8B8B9C8B0E9413099B838A839E
:1023200089899A89AB89BC890097A105B10519F4FF
:1023300089EC898345C08A819B81009719F488ECD8
:1023400089833EC08FE590E0FC0180818C83F89406
:102350008A819B8121E0FC0125878A819B81988B62
:102360008F878FE592E19E838D83CE010F969887AC
:102370008F8389899A89AB89BC8989879A87AB873A
:10238000BC878A819B819E012B5F3F4FFC01308B74
:102390002787CE0105960E947010882341F08FE5B3
:1023A00090E02C81FC0120838DEC898309C08FE5AE
:1023B00090E02C81FC012083198280E00E948B0731
:1023C000898164960FB6F894DEBF0FBECDBFCF9162
:1023D000DF910895DF93CF9300D000D0CDB7DEB763
:1023E00080911003909111039C838B838B819C813E
:1023F0009A83898358C08B819C81FC01848195815B
:10240000A681B7810197A109B1092B813C81F9010E
:1024100084839583A683B7838B819C81FC0184810F
:102420009581A681B7810097A105B10589F58091B5
:102430001003909111032B813C812817390751F427
:102440008B819C81FC018085918590931103809301
:1024500010030AC08B819C81FC0120853185898114
:102460009A81FC01318720878B819C81FC018081CE
:102470009181009789F08B819C81FC0120813181C1
:102480008B819C81FC0182819381F901099504C0B3
:102490008B819C819A8389838B819C81FC018085BF
:1024A00091859C838B838B819C81009709F0A3CFBE
:1024B0000F900F900F900F90CF91DF910895DF93C1
:1024C000CF9300D000D00F92CDB7DEB79D838C8321
:1024D0008C819D819A83898389819A810097A9F053
:1024E0008FE590E0FC0180818B83F89489819A814B
:1024F000FC012081318188EF92E0B9010E94A0099E
:102500008FE590E02B81FC0120830F900F900F90BE
:102510000F900F90CF91DF910895EF92FF920F935C
:102520001F93DF93CF93CDB7DEB72D970FB6F894F7
:10253000DEBF0FBECDBF9B838A837D836C832E83DA
:102540003F8348875987EA86FB860C871D878A81E7
:102550009B81009721F08C819D81009719F489EC73
:10256000898350C08E819F81A885B9850097A10578
:10257000B10541F08A859B85AC85BD850097A10595
:10258000B10519F489EC89833DC08A819B812C8136
:102590003D81FC01358324832A813B818E819F818B
:1025A000A885B985F90186839783A087B1872A8199
:1025B0003B818A859B85AC85BD85F90182879387A0
:1025C000A487B5878A819B81FC01118210828A8150
:1025D0009B81FC01138212828A819B81FC011686F9
:1025E0001786108A118A8A819B81FC01128A138ABC
:1025F000148A158A8A819B81FC01168A178A108E9B
:10260000118E198289812D960FB6F894DEBF0FBE08
:10261000CDBFCF91DF911F910F91FF90EF90089563
:10262000DF93CF93CDB7DEB727970FB6F894DEBF11
:102630000FBECDBF9F838E831C828E819F810097AA
:1026400019F489EC898367C019828FE590E0FC0159
:1026500080818D83F8948E819F8102960E943C0A2E
:102660009B838A838A819B81009751F48E819F810D
:102670000E943C0A9B838A838A819B810097D9F1BF
:102680008A819B812AECFC01268788EF92E02A81CF
:102690003B81B9010E94A009882341F08FE590E0B9
:1026A0002D81FC0120838CEC89832BC08A819B8146
:1026B000FC01878590890097B1F08A819B81FC019C
:1026C000878590890E94C610882341F08FE590E0AD
:1026D0002D81FC0120838DEC898313C08A819B812D
:1026E000FC01108A17868FE590E02D81FC01208384
:1026F00081E08C83AACF8FE590E02D81FC012083BF
:1027000000008C81813039F40E941309009719F080
:1027100080E00E948B07898127960FB6F894DEBF70
:102720000FBECDBFCF91DF910895DF93CF93CDB78B
:10273000DEB76C970FB6F894DEBF0FBECDBF9E8B91
:102740008D8B4F8B588F698F7A8F3C8F2B8F8D8914
:102750009E89009721F08B8D9C8D009719F489EC50
:102760008983D5C08FE590E0FC0180818A83F8944D
:102770008D899E89FC0186899789A08DB18D0097EE
:10278000A105B10509F0AFC08F89988DA98DBA8DCB
:10279000BB230CF4A0C00E9413099C838B838B8104
:1027A0009C81009709F48FC08D899E8902962B81A8
:1027B0003C81B9010E94A009882309F07CC08B816B
:1027C0009C8121E0FC01258719828F89988DA98D34
:1027D000BA8D0097A105B10509F43FC08B819C819A
:1027E0009E838D838D899E8998878F838D899E890D
:1027F00002969A87898781E995E19C878B87CE012C
:1028000005969E878D878F89988DA98DBA8D8F8724
:10281000988BA98BBA8B8B819C819E01255F3F4F42
:10282000FC01308B2787CE010B960E947010882305
:10283000C9F08DEC89838D899E8902962B813C811C
:10284000B9010E948D0A8B819C81FC0115868B81C8
:102850009C81FC01108A178605C08B819C81FC013C
:10286000108A17868FE590E02A81FC0120838981F8
:10287000882309F04CC080E00E948B078B819C81EB
:10288000FC01868589838981882309F040C08FE512
:1028900090E0FC0180818A83F8948D899E892B8D3C
:1028A0003C8DB9010E94DC1589838FE590E02A8177
:1028B000FC0120832CC08FE590E02A81FC0120835D
:1028C0008CEC898324C08FE590E02A81FC01208371
:1028D00088EC89831CC08FE590E02A81FC0120836D
:1028E00083E0898314C08D899E892B8D3C8DB9012D
:1028F0000E94DC1589838FE590E02A81FC0120830A
:102900000E941309009719F080E00E948B078981CB
:102910006C960FB6F894DEBF0FBECDBFCF91DF919E
:102920000895DF93CF93CDB7DEB76C970FB6F894C9
:10293000DEBF0FBECDBF9E8B8D8B4F8B588F698FA7
:102940007A8F3C8F2B8F8D899E89009721F08B8DFC
:102950009C8D009719F489EC8983D9C08FE590E0AC
:10296000FC0180818A83F8948D899E89FC012689E7
:102970003789408D518D8D899E89FC018285938593
:10298000A485B585281739074A075B0709F0ABC04E
:102990008F89988DA98DBA8DBB230CF49CC00E94A1
:1029A00013099C838B838B819C81009709F48BC0D6
:1029B0008D899E892B813C81B9010E94A0098823C1
:1029C00009F079C08B819C8121E0FC012587198267
:1029D0008F89988DA98DBA8D0097A105B105E9F170
:1029E0008B819C819E838D838D899E8998878F831F
:1029F0008D899E899A87898781E995E19C878B8754
:102A0000CE0105969E878D878F89988DA98DBA8D69
:102A10008F87988BA98BBA8B8B819C819E01255FB8
:102A20003F4FFC01308B2787CE010B960E94701020
:102A30008823C1F08DEC89838D899E892B813C810F
:102A4000B9010E948D0A8B819C81FC0115868B81C6
:102A50009C81FC01108A178605C08B819C81FC013A
:102A6000108A17868FE590E02A81FC0120838981F6
:102A7000882309F04CC080E00E948B078B819C81E9
:102A8000FC01868589838981882309F040C08FE510
:102A900090E0FC0180818A83F8948D899E892B8D3A
:102AA0003C8DB9010E94AA1689838FE590E02A81A6
:102AB000FC0120832CC08FE590E02A81FC0120835B
:102AC0008CEC898324C08FE590E02A81FC0120836F
:102AD00088EC89831CC08FE590E02A81FC0120836B
:102AE00083E0898314C08D899E892B8D3C8DB9012B
:102AF0000E94AA1689838FE590E02A81FC01208339
:102B00000E941309009719F080E00E948B078981C9
:102B10006C960FB6F894DEBF0FBECDBFCF91DF919C
:102B20000895DF93CF9300D000D00F92CDB7DEB7DA
:102B30009D838C838C819D819A83898389819A81ED
:102B4000009791F18FE590E0FC0180818B83F894F0
:102B500089819A81FC018081918122E0FC01268794
:102B600089819A81FC0180819181FC01108A1786FC
:102B700089819A81FC018481958129813A81F901B9
:102B800020813181B9010E948D0A89819A81FC01DD
:102B90002081318188EF92E0B9010E94A0098FE580
:102BA00090E02B81FC0120830F900F900F900F90ED
:102BB0000F90CF91DF910895EF92FF920F931F93A3
:102BC000DF93CF93CDB7DEB727970FB6F894DEBF6C
:102BD0000FBECDBF9D838C837F836E838C819D814F
:102BE000009721F08E819F81009719F489EC8983E9
:102BF000A3C08C819D81FC01248135818C819D81C4
:102C0000FC0182899389A489B589A901480F591FBC
:102C10008C819D81FC0186819781A085B1859C0175
:102C20008E819F81BA01A9010E94BB178C819D8171
:102C3000FC0122893389448955898C819D81FC015D
:102C400086819781A085B185820F931FA41FB51F30
:102C50002C813D81F901828B938BA48BB58B8C8168
:102C60009D81FC0186899789A08DB18D0197A1096D
:102C7000B1092C813D81F901868B978BA08FB18F93
:102C80008C819D81FC01E288F388048915898C81FF
:102C90009D81FC0186819781A085B1852C813D8134
:102CA000F9012285338544855585BC01CD010E94FB
:102CB0007A17DC01CB01E816F9060A071B0738F082
:102CC0008C819D81FC01128A138A148A158A8C8159
:102CD0009D810E943C0A9B838A838A819B81009705
:102CE00051F188EF92E02A813B81B9010E94A0094D
:102CF0008823F1F48A819B81FC0116868A819B815D
:102D0000FC0187859089009761F08A819B81FC0195
:102D1000878590890E94C610882319F08DEC8983DD
:102D20000BC08A819B81FC01108A1786198204C01E
:102D30008CEC898301C01982898127960FB6F8949B
:102D4000DEBF0FBECDBFCF91DF911F910F91FF90DE
:102D5000EF900895EF92FF920F931F93DF93CF931D
:102D6000CDB7DEB727970FB6F894DEBF0FBECDBF45
:102D70009D838C837F836E838C819D81009721F05E
:102D80008E819F81009719F489EC8983A5C08C817D
:102D90009D81FC01248135818C819D81FC0186858A
:102DA0009785A089B189B901680F791F8C819D81B0
:102DB000FC0186819781A085B1859C014E815F8150
:102DC000CB01BA01A9010E94BB178C819D81FC0136
:102DD00026853785408951898C819D81FC018681BA
:102DE0009781A085B185820F931FA41FB51F2C81E9
:102DF0003D81F90186879787A08BB18B8C819D815E
:102E0000FC0186899789A08DB18D0196A11DB11D08
:102E10002C813D81F901868B978BA08FB18F8C819E
:102E20009D81FC01E684F784008911898C819D8154
:102E3000FC0186819781A085B1852C813D81F901B6
:102E40002285338544855585BC01CD010E947A17C2
:102E5000DC01CB01E816F9060A071B0738F08C8164
:102E60009D81FC0116861786108A118A8C819D81AE
:102E700002960E943C0A9B838A838A819B810097E9
:102E800051F188EF92E02A813B81B9010E94A009AB
:102E90008823F1F48A819B81FC0116868A819B81BB
:102EA000FC0187859089009761F08A819B81FC01F4
:102EB000878590890E94C610882319F08DEC89833C
:102EC0000BC08A819B81FC01108A1786198204C07D
:102ED0008CEC898301C01982898127960FB6F894FA
:102EE000DEBF0FBECDBFCF91DF911F910F91FF903D
:102EF000EF900895629FD001739FF001829FE00DD3
:102F0000F11D649FE00DF11D929FF00D839FF00D68
:102F1000749FF00D659FF00D9927729FB00DE11D14
:102F2000F91F639FB00DE11DF91FBD01CF011124F1
:102F30000895A1E21A2EAA1BBB1BFD010DC0AA1FFA
:102F4000BB1FEE1FFF1FA217B307E407F50720F012
:102F5000A21BB30BE40BF50B661F771F881F991F8D
:102F60001A9469F760957095809590959B01AC01D6
:102F7000BD01CF010895FB01DC0102C001900D925B
:102F800041505040D8F70895A0E0B0E0EAECF7E1F6
:102F90000C946F1AFE01359661917191809118031E
:102FA00090911903DC0113962C91139728601396C6
:102FB0002C93AF010E94E717E0911803F0911903D9
:102FC0002381277F23832096E2E00C948B1AACE0C8
:102FD000B0E0EDEEF7E10C94601A6C012B018A0170
:102FE000FC0117821682838181FD03C02FEF3FEF22
:102FF000C1C14E010894811C911C6FE3362EF6016D
:103000009381F20193FD859193FF81912F01882394
:1030100009F4ADC1853239F493FD859193FF819117
:103020002F01853229F490E0B6010E94D519E7CF2F
:10303000EE24FF2420E02032B0F48B3269F08C3291
:1030400028F4803251F0833271F40BC08D3239F0A4
:10305000803349F421602CC02260246029C028609C
:1030600027C0206125C027FD2CC0382F30533A30AF
:1030700098F426FF08C08E2D880FE82EEE0CEE0C7B
:10308000E80EE30E15C08F2D880FF82EFF0CFF0CF5
:10309000F80EF30E20620CC08E3221F426FD67C1BB
:1030A000206406C08C3611F4206802C0883649F4CA
:1030B000F20193FD859193FF81912F01882309F0FF
:1030C000BACF982F9554933018F09052933020F443
:1030D0000C5F1F4F39820DC0833631F0833771F09A
:1030E000833509F058C01EC0F801808189830E5FC6
:1030F0001F4F540151E0652E712C12C0F801A080C1
:10310000B18026FD03C06FEF7FEF02C06E2D70E02F
:103110000E5F1F4FC5012C870E94CA193C012C85E8
:103120002F7713C0F801A080B18026FD03C06FEF98
:103130007FEF02C06E2D70E00E5F1F4FC5012C8720
:103140000E94BF193C012C85206823FF09C01FC0C5
:1031500080E290E0B6012C870E94D519FA942C8564
:103160008F2D90E06816790698F311C0F50127FDC0
:10317000859127FF81915F0190E0B6012C870E9425
:10318000D5192C85F110FA9408946108710861141E
:10319000710461F7E9C0843611F0893649F527FFDB
:1031A00008C0F80160817181828193810C5F1F4F9B
:1031B00009C0F80160817181882777FD8095982F7B
:1031C0000E5F1F4F4FE6B42EB22297FF09C09095B5
:1031D0008095709561957F4F8F4F9F4FF0E8BF2A84
:1031E000A4012AE030E00E94011A782E781843C02A
:1031F000853731F43FEEB32EB2222AE030E023C00F
:1032000099EFB92EB2228F3661F0803720F48835DD
:1032100009F0ADC012C0803739F0883709F0A7C077
:1032200005C028E030E00FC020E1B22AB4FE02C0A1
:1032300084E0B82A20E130E006C0B4FE02C0E6E037
:10324000BE2A20E132E0B7FE08C0F801608171813A
:10325000828193810C5F1F4F07C0F80160817181EB
:1032600080E090E00E5F1F4FA4010E94011A782EAB
:103270007818FFE7BF22B6FE0BC02EEFB2227E14F5
:1032800038F4B4FE07C0B2FC05C08FEEB82202C00D
:10329000A72C01C0AE2C8B2DB4FE0DC0FE01E70D96
:1032A000F11D9081903319F4E9EEBE2207C0A3947A
:1032B000B2FE04C002C0867809F0A3946B2CB3FC64
:1032C00014C0B0FE0FC0AF1410F0E72C0BC0E72CF9
:1032D000EF0CEA18AF2C06C080E290E0B6010E9425
:1032E000D519A394AF14C0F304C0AF1410F4FA18A6
:1032F00001C0FF2464FE0FC080E390E0B6010E948D
:10330000D51962FE1DC061FC03C088E790E00EC0C5
:1033100088E590E00BC0862D867891F061FE02C0B2
:103320008BE201C080E2B7FC8DE290E0B6010E9422
:10333000D51906C080E390E0B6010E94D519EA9441
:103340007E14C0F37A94F401E70DF11D808190E0C2
:10335000B6010E94D5197720A9F706C080E290E057
:10336000B6010E94D519FA94FF20C1F748CEF601A4
:1033700026813781C9012C96E1E10C947C1AFC016D
:103380000590615070400110D8F7809590958E0F90
:103390009F1F0895FC016150704001900110D8F703
:1033A000809590958E0F9F1F08950F931F93CF9335
:1033B000DF938C01EB018B8181FF1BC082FF0DC06D
:1033C0002E813F818C819D812817390764F4E88123
:1033D000F9810193F983E88306C0E885F985802F98
:1033E0000995009731F48E819F8101969F838E838A
:1033F00002C00FEF1FEFC801DF91CF911F910F9116
:103400000895FA01AA27283051F1203181F1E8947A
:103410006F936E7F6E5F7F4F8F4F9F4FAF4FB1E0C7
:103420003ED0B4E03CD0670F781F891F9A1FA11DC2
:10343000680F791F8A1F911DA11D6A0F711D811DC3
:10344000911DA11D20D009F468943F912AE0269F88
:1034500011243019305D3193DEF6CF010895462FE7
:103460004770405D4193B3E00FD0C9F7F6CF462FC8
:103470004F70405D4A3318F0495D31FD4052419331
:1034800002D0A9F7EACFB4E0A695979587957795EE
:103490006795BA95C9F700976105710508959B0175
:1034A000AC010A2E06945795479537952795BA95FE
:1034B000C9F7620F731F841F951FA01D08952F92D7
:1034C0003F924F925F926F927F928F929F92AF92B4
:1034D000BF92CF92DF92EF92FF920F931F93CF9301
:1034E000DF93CDB7DEB7CA1BDB0B0FB6F894DEBF98
:1034F0000FBECDBF09942A88398848885F846E84BE
:103500007D848C849B84AA84B984C884DF80EE8007
:10351000FD800C811B81AA81B981CE0FD11D0FB610
:10352000F894DEBF0FBECDBFED010895F894FFCF34
:0E353000000000020000000032060000000053
:00000001FF
